{
  "transactions": [
    {
      "hash": "0x74ec119c3952fd59c0d53a87ddfab1cfaf57bc89def7ecbf15c550bdeaf27c19",
      "transactionType": "CALL",
      "contractName": null,
      "contractAddress": "0x5f1f70a33b9e3d52400d16a5d8d53cd548658641",
      "function": "addPoolToVault((address,address,uint24,int24,address),(int24,int24,int24,uint16,uint32,bool))",
      "arguments": [
        "(0x9e29b3AaDa05Bf2D2c827Af80Bd28Dc0b9b4FB0c, 0xcB8BF24c6cE16Ad21D707c9505421a17f2bec79D, 100, 1, 0x4e3b8edC94064AC4E8774F8f06e1f3aA6bcA8A40)",
        "(60, 600, 120, 500, 3600, false)"
      ],
      "transaction": {
        "from": "0x2eae1c6ff3e9e484ec31f24d0b9e1aaec7ff0a32",
        "to": "0x5f1f70a33b9e3d52400d16a5d8d53cd548658641",
        "gas": "0x4eeee",
        "value": "0x0",
        "input": "0xaebbd90a0000000000000000000000009e29b3aada05bf2d2c827af80bd28dc0b9b4fb0c000000000000000000000000cb8bf24c6ce16ad21d707c9505421a17f2bec79d000000000000000000000000000000000000000000000000000000000000006400000000000000000000000000000000000000000000000000000000000000010000000000000000000000004e3b8edc94064ac4e8774f8f06e1f3aa6bca8a40000000000000000000000000000000000000000000000000000000000000003c0000000000000000000000000000000000000000000000000000000000000258000000000000000000000000000000000000000000000000000000000000007800000000000000000000000000000000000000000000000000000000000001f40000000000000000000000000000000000000000000000000000000000000e100000000000000000000000000000000000000000000000000000000000000000",
        "nonce": "0xc",
        "chainId": "0x7a0"
      },
      "additionalContracts": [],
      "isFixedGasLimit": false
    }
  ],
  "receipts": [
    {
      "type": "0x2",
      "status": "0x1",
      "cumulativeGasUsed": "0x446a5",
      "logs": [
        {
          "address": "0x983658f324c9a73ad2f650530257e1a324887bf7",
          "topics": [
            "0x0273d0e37acf3031b5b73427f3382f4f3c9f7497289f071a97df1e1c37444c2d",
            "0xb66f3b888223eafafbad9dcea1af3c57eae6cfebf5629f2c81a9902d644c251e",
            "0x0000000000000000000000009e29b3aada05bf2d2c827af80bd28dc0b9b4fb0c",
            "0x000000000000000000000000cb8bf24c6ce16ad21d707c9505421a17f2bec79d"
          ],
          "data": "0x00000000000000000000000000000000000000000000000000000000000000640000000000000000000000000000000000000000000000000000000000000001",
          "blockHash": "0xc2307f23215c2a1b9c885d2d1c9621934a8616594cd1bd59a01bb125a332e1ac",
          "blockNumber": "0x1e08f67",
          "blockTimestamp": "0x6a17ecbc",
          "transactionHash": "0x74ec119c3952fd59c0d53a87ddfab1cfaf57bc89def7ecbf15c550bdeaf27c19",
          "transactionIndex": "0x1",
          "logIndex": "0x0",
          "removed": false
        },
        {
          "address": "0x983658f324c9a73ad2f650530257e1a324887bf7",
          "topics": [
            "0x1604b32e57c2968e0621abe1437777c5fbb9b65a1c79eb71e5ef99a3c90fc6af",
            "0xb66f3b888223eafafbad9dcea1af3c57eae6cfebf5629f2c81a9902d644c251e"
          ],
          "data": "0x000000000000000000000000000000000000000000000000000000000000003c0000000000000000000000000000000000000000000000000000000000000258000000000000000000000000000000000000000000000000000000000000007800000000000000000000000000000000000000000000000000000000000001f40000000000000000000000000000000000000000000000000000000000000e100000000000000000000000000000000000000000000000000000000000000000",
          "blockHash": "0xc2307f23215c2a1b9c885d2d1c9621934a8616594cd1bd59a01bb125a332e1ac",
          "blockNumber": "0x1e08f67",
          "blockTimestamp": "0x6a17ecbc",
          "transactionHash": "0x74ec119c3952fd59c0d53a87ddfab1cfaf57bc89def7ecbf15c550bdeaf27c19",
          "transactionIndex": "0x1",
          "logIndex": "0x1",
          "removed": false
        },
        {
          "address": "0x4e3b8edc94064ac4e8774f8f06e1f3aa6bca8a40",
          "topics": [
            "0x4febd168970a9c120b9fa4d7510aaf5c483181a464baa43484820d09b1d4e4f6",
            "0xb66f3b888223eafafbad9dcea1af3c57eae6cfebf5629f2c81a9902d644c251e",
            "0x000000000000000000000000983658f324c9a73ad2f650530257e1a324887bf7"
          ],
          "data": "0x",
          "blockHash": "0xc2307f23215c2a1b9c885d2d1c9621934a8616594cd1bd59a01bb125a332e1ac",
          "blockNumber": "0x1e08f67",
          "blockTimestamp": "0x6a17ecbc",
          "transactionHash": "0x74ec119c3952fd59c0d53a87ddfab1cfaf57bc89def7ecbf15c550bdeaf27c19",
          "transactionIndex": "0x1",
          "logIndex": "0x2",
          "removed": false
        },
        {
          "address": "0x5f1f70a33b9e3d52400d16a5d8d53cd548658641",
          "topics": [
            "0x2d9e05c1ccbaca476af7afdcb071c1ebf05f1a3b2808f98e16eef1d7fbbc9829",
            "0x0000000000000000000000002eae1c6ff3e9e484ec31f24d0b9e1aaec7ff0a32",
            "0x000000000000000000000000983658f324c9a73ad2f650530257e1a324887bf7",
            "0xb66f3b888223eafafbad9dcea1af3c57eae6cfebf5629f2c81a9902d644c251e"
          ],
          "data": "0x",
          "blockHash": "0xc2307f23215c2a1b9c885d2d1c9621934a8616594cd1bd59a01bb125a332e1ac",
          "blockNumber": "0x1e08f67",
          "blockTimestamp": "0x6a17ecbc",
          "transactionHash": "0x74ec119c3952fd59c0d53a87ddfab1cfaf57bc89def7ecbf15c550bdeaf27c19",
          "transactionIndex": "0x1",
          "logIndex": "0x3",
          "removed": false
        }
      ],
      "logsBloom": "0x00200000000410000000000000400200000000001020000000000000000000000000000000002000000000000000080000800000000000000000002000000000000040000000000000000000000000000000000000400010000004100000000000040000000000002000000080000000000000000000000000000020020000000000120000000010000000000100000000000000000000000000000000000000000000000000400000000020000000000000000000000000000000000002000000000028000000400004000000000000000000000000000000000000100000000000010000000000000200000000000000000000000000000200000000000000",
      "transactionHash": "0x74ec119c3952fd59c0d53a87ddfab1cfaf57bc89def7ecbf15c550bdeaf27c19",
      "transactionIndex": "0x1",
      "blockHash": "0xc2307f23215c2a1b9c885d2d1c9621934a8616594cd1bd59a01bb125a332e1ac",
      "blockNumber": "0x1e08f67",
      "gasUsed": "0x39257",
      "effectiveGasPrice": "0x1312d01",
      "blobGasUsed": "0xaa",
      "from": "0x2eae1c6ff3e9e484ec31f24d0b9e1aaec7ff0a32",
      "to": "0x5f1f70a33b9e3d52400d16a5d8d53cd548658641",
      "contractAddress": null
    }
  ],
  "libraries": [],
  "pending": [],
  "returns": {
    "poolId": {
      "internal_type": "PoolId",
      "value": "0xb66f3b888223eafafbad9dcea1af3c57eae6cfebf5629f2c81a9902d644c251e"
    },
    "initialTick": {
      "internal_type": "int24",
      "value": "0"
    }
  },
  "timestamp": 1779952828129,
  "chain": 1952,
  "commit": null
}