{
  "transactions": [
    {
      "hash": "0xd67d1e4c816ca287355ce5b118e62fa28d43b1d7def6a8b3972b572ec6a71ed8",
      "transactionType": "CALL",
      "contractName": null,
      "contractAddress": "0x9e29b3aada05bf2d2c827af80bd28dc0b9b4fb0c",
      "function": "approve(address,uint256)",
      "arguments": [
        "0x983658f324C9a73aD2f650530257e1A324887bf7",
        "5000000"
      ],
      "transaction": {
        "from": "0x2eae1c6ff3e9e484ec31f24d0b9e1aaec7ff0a32",
        "to": "0x9e29b3aada05bf2d2c827af80bd28dc0b9b4fb0c",
        "gas": "0x1249a",
        "value": "0x0",
        "input": "0x095ea7b3000000000000000000000000983658f324c9a73ad2f650530257e1a324887bf700000000000000000000000000000000000000000000000000000000004c4b40",
        "nonce": "0xd",
        "chainId": "0x7a0"
      },
      "additionalContracts": [],
      "isFixedGasLimit": false
    },
    {
      "hash": "0x4a3d73b42ed4317a3609697fb7e7ed0a0734edd9fd12a7c7df3beed3cbecf7f3",
      "transactionType": "CALL",
      "contractName": null,
      "contractAddress": "0xcb8bf24c6ce16ad21d707c9505421a17f2bec79d",
      "function": "approve(address,uint256)",
      "arguments": [
        "0x983658f324C9a73aD2f650530257e1A324887bf7",
        "5000000"
      ],
      "transaction": {
        "from": "0x2eae1c6ff3e9e484ec31f24d0b9e1aaec7ff0a32",
        "to": "0xcb8bf24c6ce16ad21d707c9505421a17f2bec79d",
        "gas": "0x12b1b",
        "value": "0x0",
        "input": "0x095ea7b3000000000000000000000000983658f324c9a73ad2f650530257e1a324887bf700000000000000000000000000000000000000000000000000000000004c4b40",
        "nonce": "0xe",
        "chainId": "0x7a0"
      },
      "additionalContracts": [],
      "isFixedGasLimit": false
    },
    {
      "hash": "0xbe54eccc170a511988aa2baf78662506ced0b9076baeca3ce4d8136eb370668b",
      "transactionType": "CALL",
      "contractName": null,
      "contractAddress": "0x983658f324c9a73ad2f650530257e1a324887bf7",
      "function": "deposit(bytes32,uint256,uint256)",
      "arguments": [
        "0xb66f3b888223eafafbad9dcea1af3c57eae6cfebf5629f2c81a9902d644c251e",
        "5000000",
        "5000000"
      ],
      "transaction": {
        "from": "0x2eae1c6ff3e9e484ec31f24d0b9e1aaec7ff0a32",
        "to": "0x983658f324c9a73ad2f650530257e1a324887bf7",
        "gas": "0x43f85",
        "value": "0x0",
        "input": "0x278f2ab8b66f3b888223eafafbad9dcea1af3c57eae6cfebf5629f2c81a9902d644c251e00000000000000000000000000000000000000000000000000000000004c4b4000000000000000000000000000000000000000000000000000000000004c4b40",
        "nonce": "0xf",
        "chainId": "0x7a0"
      },
      "additionalContracts": [],
      "isFixedGasLimit": false
    },
    {
      "hash": "0xc523e5702e0dbf369ef014361796115c232deb12dd51e3ae41f636bf6d458e25",
      "transactionType": "CALL",
      "contractName": null,
      "contractAddress": "0x983658f324c9a73ad2f650530257e1a324887bf7",
      "function": "rebalance((bytes32,int24,int24,uint128,uint128,uint256,uint256,uint256,uint256,uint256,uint256,bytes32))",
      "arguments": [
        "(0xb66f3b888223eafafbad9dcea1af3c57eae6cfebf5629f2c81a9902d644c251e, -100, 100, 0, 1002552082, 0, 0, 5000000, 5000000, 1779961681, 12978076392587524081530153791292140554351953959387080828776745508861527849598, 0x25e662400439538b2676a452cc2c236644312a5bb58d694becbf05f8f35b7607)"
      ],
      "transaction": {
        "from": "0x2eae1c6ff3e9e484ec31f24d0b9e1aaec7ff0a32",
        "to": "0x983658f324c9a73ad2f650530257e1a324887bf7",
        "gas": "0x8f93a",
        "value": "0x0",
        "input": "0xe9735495b66f3b888223eafafbad9dcea1af3c57eae6cfebf5629f2c81a9902d644c251effffffffffffffffffffffffffffffffffffffffffffffffffffffffffffff9c00000000000000000000000000000000000000000000000000000000000000640000000000000000000000000000000000000000000000000000000000000000000000000000000000000000000000000000000000000000000000003bc1bb120000000000000000000000000000000000000000000000000000000000000000000000000000000000000000000000000000000000000000000000000000000000000000000000000000000000000000000000000000000000000000004c4b4000000000000000000000000000000000000000000000000000000000004c4b40000000000000000000000000000000000000000000000000000000006a180f511cb154b7cb75f57a587ba7414f02e4ae889e2c22892e524de517f7f050e5fa7e25e662400439538b2676a452cc2c236644312a5bb58d694becbf05f8f35b7607",
        "nonce": "0x10",
        "chainId": "0x7a0"
      },
      "additionalContracts": [],
      "isFixedGasLimit": false
    }
  ],
  "receipts": [
    {
      "type": "0x2",
      "status": "0x1",
      "cumulativeGasUsed": "0x17c54",
      "logs": [
        {
          "address": "0x9e29b3aada05bf2d2c827af80bd28dc0b9b4fb0c",
          "topics": [
            "0x8c5be1e5ebec7d5bd14f71427d1e84f3dd0314c0f7b2291e5b200ac8c7c3b925",
            "0x0000000000000000000000002eae1c6ff3e9e484ec31f24d0b9e1aaec7ff0a32",
            "0x000000000000000000000000983658f324c9a73ad2f650530257e1a324887bf7"
          ],
          "data": "0x00000000000000000000000000000000000000000000000000000000004c4b40",
          "blockHash": "0x16e3558b740516068b0ad8e5df8188fa35308b404e228b04c22a60971793f58e",
          "blockNumber": "0x1e0ab02",
          "blockTimestamp": "0x6a180857",
          "transactionHash": "0xd67d1e4c816ca287355ce5b118e62fa28d43b1d7def6a8b3972b572ec6a71ed8",
          "transactionIndex": "0x1",
          "logIndex": "0x0",
          "removed": false
        }
      ],
      "logsBloom": "0x00000000000014000000000000000000000000000000000000000000000000000000000000000000000000000000000000800000000000000000000000200000000000000000000000000000000000000000000004000000000004000000000000000000000000000000000008000000000000000000000000000000020000000000000000000000000000000000000000000000000000000000000000000000020000000000400000000000000000000000000000000000000000000000000000000000000000000000000000000000000000000000000000000000000000000010000000000000000200000000000000000000000000000000000000000000",
      "transactionHash": "0xd67d1e4c816ca287355ce5b118e62fa28d43b1d7def6a8b3972b572ec6a71ed8",
      "transactionIndex": "0x1",
      "blockHash": "0x16e3558b740516068b0ad8e5df8188fa35308b404e228b04c22a60971793f58e",
      "blockNumber": "0x1e0ab02",
      "gasUsed": "0xc812",
      "effectiveGasPrice": "0x1312d01",
      "blobGasUsed": "0x64",
      "from": "0x2eae1c6ff3e9e484ec31f24d0b9e1aaec7ff0a32",
      "to": "0x9e29b3aada05bf2d2c827af80bd28dc0b9b4fb0c",
      "contractAddress": null
    },
    {
      "type": "0x2",
      "status": "0x1",
      "cumulativeGasUsed": "0x254e1",
      "logs": [
        {
          "address": "0xcb8bf24c6ce16ad21d707c9505421a17f2bec79d",
          "topics": [
            "0x8c5be1e5ebec7d5bd14f71427d1e84f3dd0314c0f7b2291e5b200ac8c7c3b925",
            "0x0000000000000000000000002eae1c6ff3e9e484ec31f24d0b9e1aaec7ff0a32",
            "0x000000000000000000000000983658f324c9a73ad2f650530257e1a324887bf7"
          ],
          "data": "0x00000000000000000000000000000000000000000000000000000000004c4b40",
          "blockHash": "0x16e3558b740516068b0ad8e5df8188fa35308b404e228b04c22a60971793f58e",
          "blockNumber": "0x1e0ab02",
          "blockTimestamp": "0x6a180857",
          "transactionHash": "0x4a3d73b42ed4317a3609697fb7e7ed0a0734edd9fd12a7c7df3beed3cbecf7f3",
          "transactionIndex": "0x2",
          "logIndex": "0x1",
          "removed": false
        }
      ],
      "logsBloom": "0x00000000000010000000000000000000000000000000000000000000000000000000000000000000000000000000000000800000000000000000000000200000000000000000000000000000000000000000000000000000000004000000000000000000000000000000000000000000000000000004000000000000020000000000000000000000000000000000000000000000000000001000000000000000020000000000400000000000000000000000000000000000000000000000000000000000000000000000000000000000000000000000000000000000000000000010000080000000000200000000000000000000000000000000000000000000",
      "transactionHash": "0x4a3d73b42ed4317a3609697fb7e7ed0a0734edd9fd12a7c7df3beed3cbecf7f3",
      "transactionIndex": "0x2",
      "blockHash": "0x16e3558b740516068b0ad8e5df8188fa35308b404e228b04c22a60971793f58e",
      "blockNumber": "0x1e0ab02",
      "gasUsed": "0xd88d",
      "effectiveGasPrice": "0x1312d01",
      "blobGasUsed": "0x64",
      "from": "0x2eae1c6ff3e9e484ec31f24d0b9e1aaec7ff0a32",
      "to": "0xcb8bf24c6ce16ad21d707c9505421a17f2bec79d",
      "contractAddress": null
    },
    {
      "type": "0x2",
      "status": "0x1",
      "cumulativeGasUsed": "0x53c7c",
      "logs": [
        {
          "address": "0x9e29b3aada05bf2d2c827af80bd28dc0b9b4fb0c",
          "topics": [
            "0xddf252ad1be2c89b69c2b068fc378daa952ba7f163c4a11628f55a4df523b3ef",
            "0x0000000000000000000000002eae1c6ff3e9e484ec31f24d0b9e1aaec7ff0a32",
            "0x000000000000000000000000983658f324c9a73ad2f650530257e1a324887bf7"
          ],
          "data": "0x00000000000000000000000000000000000000000000000000000000004c4b40",
          "blockHash": "0x16e3558b740516068b0ad8e5df8188fa35308b404e228b04c22a60971793f58e",
          "blockNumber": "0x1e0ab02",
          "blockTimestamp": "0x6a180857",
          "transactionHash": "0xc523e5702e0dbf369ef014361796115c232deb12dd51e3ae41f636bf6d458e25",
          "transactionIndex": "0x3",
          "logIndex": "0x2",
          "removed": false
        },
        {
          "address": "0xcb8bf24c6ce16ad21d707c9505421a17f2bec79d",
          "topics": [
            "0xddf252ad1be2c89b69c2b068fc378daa952ba7f163c4a11628f55a4df523b3ef",
            "0x0000000000000000000000002eae1c6ff3e9e484ec31f24d0b9e1aaec7ff0a32",
            "0x000000000000000000000000983658f324c9a73ad2f650530257e1a324887bf7"
          ],
          "data": "0x00000000000000000000000000000000000000000000000000000000004c4b40",
          "blockHash": "0x16e3558b740516068b0ad8e5df8188fa35308b404e228b04c22a60971793f58e",
          "blockNumber": "0x1e0ab02",
          "blockTimestamp": "0x6a180857",
          "transactionHash": "0xc523e5702e0dbf369ef014361796115c232deb12dd51e3ae41f636bf6d458e25",
          "transactionIndex": "0x3",
          "logIndex": "0x3",
          "removed": false
        },
        {
          "address": "0x983658f324c9a73ad2f650530257e1a324887bf7",
          "topics": [
            "0x2dcdaad87b561ba5a69835009b4c53ef9d3c41ca6cc9574049187659d6c6a715",
            "0xb66f3b888223eafafbad9dcea1af3c57eae6cfebf5629f2c81a9902d644c251e",
            "0x0000000000000000000000002eae1c6ff3e9e484ec31f24d0b9e1aaec7ff0a32"
          ],
          "data": "0x00000000000000000000000000000000000000000000000000000000004c4b4000000000000000000000000000000000000000000000000000000000004c4b40",
          "blockHash": "0x16e3558b740516068b0ad8e5df8188fa35308b404e228b04c22a60971793f58e",
          "blockNumber": "0x1e0ab02",
          "blockTimestamp": "0x6a180857",
          "transactionHash": "0xc523e5702e0dbf369ef014361796115c232deb12dd51e3ae41f636bf6d458e25",
          "transactionIndex": "0x3",
          "logIndex": "0x4",
          "removed": false
        }
      ],
      "logsBloom": "0x0000000000001400000000000000000000000000000000000000000000000000000000000000000000000000000000000080000000000000000000000000000000004000000000000000040800000000000000000400001000000400000000000000000000000000200000000800000000000000000c00000000001002000000000002000000001000000000000000000200000000000000100000000000000000000000000040000000000000000000000000000000000000000000000000000000000a000000000000000000000000000000000000000000000000000000000000000080000000000200000000000000000000000000000000000000000000",
      "transactionHash": "0xc523e5702e0dbf369ef014361796115c232deb12dd51e3ae41f636bf6d458e25",
      "transactionIndex": "0x3",
      "blockHash": "0x16e3558b740516068b0ad8e5df8188fa35308b404e228b04c22a60971793f58e",
      "blockNumber": "0x1e0ab02",
      "gasUsed": "0x2e79b",
      "effectiveGasPrice": "0x1312d01",
      "blobGasUsed": "0x64",
      "from": "0x2eae1c6ff3e9e484ec31f24d0b9e1aaec7ff0a32",
      "to": "0x983658f324c9a73ad2f650530257e1a324887bf7",
      "contractAddress": null
    },
    {
      "type": "0x2",
      "status": "0x1",
      "cumulativeGasUsed": "0xbbba3",
      "logs": [
        {
          "address": "0x4e3b8edc94064ac4e8774f8f06e1f3aa6bca8a40",
          "topics": [
            "0x163d6f440dfb77ea3d0349a90eb401c4bc1704f44572a247226ba0fae581717a",
            "0xb66f3b888223eafafbad9dcea1af3c57eae6cfebf5629f2c81a9902d644c251e",
            "0x000000000000000000000000983658f324c9a73ad2f650530257e1a324887bf7"
          ],
          "data": "0xffffffffffffffffffffffffffffffffffffffffffffffffffffffffffffff9c0000000000000000000000000000000000000000000000000000000000000064000000000000000000000000000000000000000000000000000000003bc1bb12557cca8fc18ff9498992c2d2cfc66af83f736253c5599556a912eeb4f622ba17",
          "blockHash": "0x16e3558b740516068b0ad8e5df8188fa35308b404e228b04c22a60971793f58e",
          "blockNumber": "0x1e0ab02",
          "blockTimestamp": "0x6a180857",
          "transactionHash": "0xbe54eccc170a511988aa2baf78662506ced0b9076baeca3ce4d8136eb370668b",
          "transactionIndex": "0x4",
          "logIndex": "0x5",
          "removed": false
        },
        {
          "address": "0x6df5dae1e6216578e9ec63b239bfa6990ae6ed50",
          "topics": [
            "0xf208f4912782fd25c7f114ca3723a2d5dd6f3bcc3ac8db5af63baa85f711d5ec",
            "0xb66f3b888223eafafbad9dcea1af3c57eae6cfebf5629f2c81a9902d644c251e",
            "0x000000000000000000000000983658f324c9a73ad2f650530257e1a324887bf7"
          ],
          "data": "0xffffffffffffffffffffffffffffffffffffffffffffffffffffffffffffff9c0000000000000000000000000000000000000000000000000000000000000064000000000000000000000000000000000000000000000000000000003bc1bb12557cca8fc18ff9498992c2d2cfc66af83f736253c5599556a912eeb4f622ba17",
          "blockHash": "0x16e3558b740516068b0ad8e5df8188fa35308b404e228b04c22a60971793f58e",
          "blockNumber": "0x1e0ab02",
          "blockTimestamp": "0x6a180857",
          "transactionHash": "0xbe54eccc170a511988aa2baf78662506ced0b9076baeca3ce4d8136eb370668b",
          "transactionIndex": "0x4",
          "logIndex": "0x6",
          "removed": false
        },
        {
          "address": "0x9e29b3aada05bf2d2c827af80bd28dc0b9b4fb0c",
          "topics": [
            "0xddf252ad1be2c89b69c2b068fc378daa952ba7f163c4a11628f55a4df523b3ef",
            "0x000000000000000000000000983658f324c9a73ad2f650530257e1a324887bf7",
            "0x0000000000000000000000006df5dae1e6216578e9ec63b239bfa6990ae6ed50"
          ],
          "data": "0x00000000000000000000000000000000000000000000000000000000004c4b40",
          "blockHash": "0x16e3558b740516068b0ad8e5df8188fa35308b404e228b04c22a60971793f58e",
          "blockNumber": "0x1e0ab02",
          "blockTimestamp": "0x6a180857",
          "transactionHash": "0xbe54eccc170a511988aa2baf78662506ced0b9076baeca3ce4d8136eb370668b",
          "transactionIndex": "0x4",
          "logIndex": "0x7",
          "removed": false
        },
        {
          "address": "0xcb8bf24c6ce16ad21d707c9505421a17f2bec79d",
          "topics": [
            "0xddf252ad1be2c89b69c2b068fc378daa952ba7f163c4a11628f55a4df523b3ef",
            "0x000000000000000000000000983658f324c9a73ad2f650530257e1a324887bf7",
            "0x0000000000000000000000006df5dae1e6216578e9ec63b239bfa6990ae6ed50"
          ],
          "data": "0x00000000000000000000000000000000000000000000000000000000004c4b40",
          "blockHash": "0x16e3558b740516068b0ad8e5df8188fa35308b404e228b04c22a60971793f58e",
          "blockNumber": "0x1e0ab02",
          "blockTimestamp": "0x6a180857",
          "transactionHash": "0xbe54eccc170a511988aa2baf78662506ced0b9076baeca3ce4d8136eb370668b",
          "transactionIndex": "0x4",
          "logIndex": "0x8",
          "removed": false
        },
        {
          "address": "0x983658f324c9a73ad2f650530257e1a324887bf7",
          "topics": [
            "0xdf02e5baeb700ce17db416006badb92f3b8355a4e8785a2a1e8d0b111e24baa0",
            "0xb66f3b888223eafafbad9dcea1af3c57eae6cfebf5629f2c81a9902d644c251e",
            "0x0000000000000000000000002eae1c6ff3e9e484ec31f24d0b9e1aaec7ff0a32"
          ],
          "data": "0xffffffffffffffffffffffffffffffffffffffffffffffffffffffffffffff9c00000000000000000000000000000000000000000000000000000000000000640000000000000000000000000000000000000000000000000000000000000000000000000000000000000000000000000000000000000000000000003bc1bb121cb154b7cb75f57a587ba7414f02e4ae889e2c22892e524de517f7f050e5fa7e25e662400439538b2676a452cc2c236644312a5bb58d694becbf05f8f35b7607",
          "blockHash": "0x16e3558b740516068b0ad8e5df8188fa35308b404e228b04c22a60971793f58e",
          "blockNumber": "0x1e0ab02",
          "blockTimestamp": "0x6a180857",
          "transactionHash": "0xbe54eccc170a511988aa2baf78662506ced0b9076baeca3ce4d8136eb370668b",
          "transactionIndex": "0x4",
          "logIndex": "0x9",
          "removed": false
        }
      ],
      "logsBloom": "0x0000000000001400000000000000000000000000000000000000000000000000000000000000000000000010000000004080000000000000000000000000000000004000000000000000000800000000000000000400001000000400000020000000000000000000200000001800400000000000000400000000005012000000000002000100001000000000010000000000000000000000100000000000000000000400000040000000000000000000000000000000002000000000000200400000002a000000000000000000000000000000000040000000000000000000000000000080000000000200000000000004200000000000000000000000000000",
      "transactionHash": "0xbe54eccc170a511988aa2baf78662506ced0b9076baeca3ce4d8136eb370668b",
      "transactionIndex": "0x4",
      "blockHash": "0x16e3558b740516068b0ad8e5df8188fa35308b404e228b04c22a60971793f58e",
      "blockNumber": "0x1e0ab02",
      "gasUsed": "0x67f27",
      "effectiveGasPrice": "0x1312d01",
      "blobGasUsed": "0xb0",
      "from": "0x2eae1c6ff3e9e484ec31f24d0b9e1aaec7ff0a32",
      "to": "0x983658f324c9a73ad2f650530257e1a324887bf7",
      "contractAddress": null
    }
  ],
  "libraries": [],
  "pending": [],
  "returns": {
    "poolId": {
      "internal_type": "PoolId",
      "value": "0xb66f3b888223eafafbad9dcea1af3c57eae6cfebf5629f2c81a9902d644c251e"
    },
    "initialTick": {
      "internal_type": "int24",
      "value": "0"
    }
  },
  "timestamp": 1779959894909,
  "chain": 1952,
  "commit": "6ba29b0"
}